{
  "contractName": "Bank",
  "abi": [
    {
      "inputs": [
        {
          "internalType": "uint256",
          "name": "",
          "type": "uint256"
        }
      ],
      "name": "accounts",
      "outputs": [
        {
          "internalType": "address",
          "name": "",
          "type": "address"
        }
      ],
      "stateMutability": "view",
      "type": "function",
      "constant": true
    },
    {
      "inputs": [
        {
          "internalType": "address",
          "name": "",
          "type": "address"
        }
      ],
      "name": "balances",
      "outputs": [
        {
          "internalType": "uint256",
          "name": "",
          "type": "uint256"
        }
      ],
      "stateMutability": "view",
      "type": "function",
      "constant": true
    },
    {
      "inputs": [],
      "name": "deposit",
      "outputs": [],
      "stateMutability": "payable",
      "type": "function",
      "payable": true
    },
    {
      "inputs": [],
      "name": "withdraw",
      "outputs": [],
      "stateMutability": "nonpayable",
      "type": "function"
    },
    {
      "inputs": [],
      "name": "getBalance",
      "outputs": [
        {
          "internalType": "uint256",
          "name": "",
          "type": "uint256"
        }
      ],
      "stateMutability": "view",
      "type": "function",
      "constant": true
    },
    {
      "inputs": [],
      "name": "getAccounts",
      "outputs": [
        {
          "internalType": "address[2]",
          "name": "",
          "type": "address[2]"
        }
      ],
      "stateMutability": "view",
      "type": "function",
      "constant": true
    }
  ],
  "bytecode": "0x608060405234801561001057600080fd5b5061074b806100206000396000f3fe6080604052600436106100555760003560e01c806312065fe01461005a57806327e235e3146100855780633ccfd60b146100c25780638a48ac03146100d9578063d0e30db014610104578063f2a40db81461010e575b600080fd5b34801561006657600080fd5b5061006f61014b565b60405161007c91906103fb565b60405180910390f35b34801561009157600080fd5b506100ac60048036038101906100a79190610479565b610153565b6040516100b991906103fb565b60405180910390f35b3480156100ce57600080fd5b506100d761016b565b005b3480156100e557600080fd5b506100ee6102b1565b6040516100fb9190610551565b60405180910390f35b61010c610332565b005b34801561011a57600080fd5b5061013560048036038101906101309190610598565b61038a565b60405161014291906105d4565b60405180910390f35b600047905090565b60026020528060005260406000206000915090505481565b6000600260003373ffffffffffffffffffffffffffffffffffffffff1673ffffffffffffffffffffffffffffffffffffffff168152602001908152602001600020549050600081116101bc57600080fd5b6000600260003373ffffffffffffffffffffffffffffffffffffffff1673ffffffffffffffffffffffffffffffffffffffff1681526020019081526020016000208190555060003373ffffffffffffffffffffffffffffffffffffffff168260405161022790610620565b60006040518083038185875af1925050503d8060008114610264576040519150601f19603f3d011682016040523d82523d6000602084013e610269565b606091505b50509050806102ad576040517f08c379a00000000000000000000000000000000000000000000000000000000081526004016102a490610692565b60405180910390fd5b5050565b6102b96103c0565b6000600280602002604051908101604052809291908260028015610328576020028201915b8160009054906101000a900473ffffffffffffffffffffffffffffffffffffffff1673ffffffffffffffffffffffffffffffffffffffff16815260200190600101908083116102de575b5050505050905090565b34600260003373ffffffffffffffffffffffffffffffffffffffff1673ffffffffffffffffffffffffffffffffffffffff168152602001908152602001600020600082825461038191906106e1565b92505081905550565b6000816002811061039a57600080fd5b016000915054906101000a900473ffffffffffffffffffffffffffffffffffffffff1681565b6040518060400160405280600290602082028036833780820191505090505090565b6000819050919050565b6103f5816103e2565b82525050565b600060208201905061041060008301846103ec565b92915050565b600080fd5b600073ffffffffffffffffffffffffffffffffffffffff82169050919050565b60006104468261041b565b9050919050565b6104568161043b565b811461046157600080fd5b50565b6000813590506104738161044d565b92915050565b60006020828403121561048f5761048e610416565b5b600061049d84828501610464565b91505092915050565b600060029050919050565b600081905092915050565b6000819050919050565b6104cf8161043b565b82525050565b60006104e183836104c6565b60208301905092915050565b6000602082019050919050565b610503816104a6565b61050d81846104b1565b9250610518826104bc565b8060005b8381101561054957815161053087826104d5565b965061053b836104ed565b92505060018101905061051c565b505050505050565b600060408201905061056660008301846104fa565b92915050565b610575816103e2565b811461058057600080fd5b50565b6000813590506105928161056c565b92915050565b6000602082840312156105ae576105ad610416565b5b60006105bc84828501610583565b91505092915050565b6105ce8161043b565b82525050565b60006020820190506105e960008301846105c5565b92915050565b600081905092915050565b50565b600061060a6000836105ef565b9150610615826105fa565b600082019050919050565b600061062b826105fd565b9150819050919050565b600082825260208201905092915050565b7f4661696c656420746f2073656e64204574686572000000000000000000000000600082015250565b600061067c601483610635565b915061068782610646565b602082019050919050565b600060208201905081810360008301526106ab8161066f565b9050919050565b7f4e487b7100000000000000000000000000000000000000000000000000000000600052601160045260246000fd5b60006106ec826103e2565b91506106f7836103e2565b925082820190508082111561070f5761070e6106b2565b5b9291505056fea26469706673582212209f675bef45c2fb035b935d694cf6961ab352d991b5e4ca87f759d219f1f6602764736f6c63430008110033",
  "immutableReferences": {},
  "source": "pragma solidity >=0.6.0 <0.9.0;\r\n\r\ncontract Bank {\r\n    // Mapping Data structure to keep track of balances of users\r\n    address[2] public accounts;\r\n    mapping(address => uint256) public balances;\r\n\r\n    // As the name suggests, you can use this function to deposit Ether to the contract\r\n    function deposit() public payable {\r\n        balances[msg.sender] += msg.value;\r\n    }\r\n\r\n    // For withdrawing the Ether stored by users\r\n    function withdraw() public {\r\n        // Gets the balance of the user calling the withdraw function\r\n        uint256 bal = balances[msg.sender];\r\n\r\n        // Check\r\n        require(bal > 0);\r\n\r\n        // Effect\r\n        balances[msg.sender] = 0;\r\n\r\n        // Interaction\r\n        (bool sent, ) = msg.sender.call{value: bal}(\"\");\r\n        require(sent, \"Failed to send Ether\");\r\n    }\r\n\r\n    // Helper function to check the balance of this contract\r\n    function getBalance() public view returns (uint256) {\r\n        return address(this).balance;\r\n    }\r\n\r\n    // Retrieving the accounts\r\n    function getAccounts() public view returns (address[2] memory) {\r\n        return accounts;\r\n    }\r\n}\r\n",
  "sourcePath": "d:\\school\\Master\\SEM3\\Assignment2\\contracts\\Bank.sol",
  "compiler": {
    "name": "solc",
    "version": "0.8.17+commit.8df45f5f.Emscripten.clang"
  },
  "schemaVersion": "3.4.10",
  "updatedAt": "2022-10-27T10:13:38.085Z",
  "networkType": "ethereum",
  "devdoc": {
    "kind": "dev",
    "methods": {},
    "version": 1
  },
  "userdoc": {
    "kind": "user",
    "methods": {},
    "version": 1
  }
}